{
  "contractName": "PakLock",
  "abi": [
    {
      "inputs": [
        {
          "internalType": "address",
          "name": "_pakAddress",
          "type": "address"
        },
        {
          "internalType": "uint256",
          "name": "_registerFee",
          "type": "uint256"
        }
      ],
      "stateMutability": "nonpayable",
      "type": "constructor"
    },
    {
      "anonymous": false,
      "inputs": [
        {
          "indexed": true,
          "internalType": "address",
          "name": "previousOwner",
          "type": "address"
        },
        {
          "indexed": true,
          "internalType": "address",
          "name": "newOwner",
          "type": "address"
        }
      ],
      "name": "OwnershipTransferred",
      "type": "event"
    },
    {
      "inputs": [],
      "name": "bridge",
      "outputs": [
        {
          "internalType": "address",
          "name": "",
          "type": "address"
        }
      ],
      "stateMutability": "view",
      "type": "function",
      "constant": true
    },
    {
      "inputs": [],
      "name": "owner",
      "outputs": [
        {
          "internalType": "address",
          "name": "",
          "type": "address"
        }
      ],
      "stateMutability": "view",
      "type": "function",
      "constant": true
    },
    {
      "inputs": [],
      "name": "pak",
      "outputs": [
        {
          "internalType": "contract IERC20",
          "name": "",
          "type": "address"
        }
      ],
      "stateMutability": "view",
      "type": "function",
      "constant": true
    },
    {
      "inputs": [],
      "name": "renounceOwnership",
      "outputs": [],
      "stateMutability": "nonpayable",
      "type": "function"
    },
    {
      "inputs": [
        {
          "internalType": "address",
          "name": "newOwner",
          "type": "address"
        }
      ],
      "name": "transferOwnership",
      "outputs": [],
      "stateMutability": "nonpayable",
      "type": "function"
    },
    {
      "inputs": [],
      "name": "getRegisterFee",
      "outputs": [
        {
          "internalType": "uint256",
          "name": "",
          "type": "uint256"
        }
      ],
      "stateMutability": "view",
      "type": "function",
      "constant": true
    },
    {
      "inputs": [
        {
          "internalType": "uint256",
          "name": "_registerFee",
          "type": "uint256"
        }
      ],
      "name": "setRegisterFee",
      "outputs": [],
      "stateMutability": "nonpayable",
      "type": "function"
    },
    {
      "inputs": [
        {
          "internalType": "address",
          "name": "_token",
          "type": "address"
        }
      ],
      "name": "registerToken",
      "outputs": [],
      "stateMutability": "nonpayable",
      "type": "function"
    },
    {
      "inputs": [
        {
          "internalType": "address",
          "name": "_source",
          "type": "address"
        },
        {
          "internalType": "address",
          "name": "_target",
          "type": "address"
        }
      ],
      "name": "activateRegistration",
      "outputs": [],
      "stateMutability": "nonpayable",
      "type": "function"
    },
    {
      "inputs": [
        {
          "internalType": "address",
          "name": "_sourceToken",
          "type": "address"
        },
        {
          "internalType": "uint256",
          "name": "_totalSupply",
          "type": "uint256"
        }
      ],
      "name": "deployToken",
      "outputs": [],
      "stateMutability": "nonpayable",
      "type": "function"
    }
  ],
  "bytecode": "0x60806040523480156200001157600080fd5b50604051620013c2380380620013c2833981810160405281019062000037919062000203565b600062000049620001cd60201b60201c565b9050806000806101000a81548173ffffffffffffffffffffffffffffffffffffffff021916908373ffffffffffffffffffffffffffffffffffffffff1602179055508073ffffffffffffffffffffffffffffffffffffffff16600073ffffffffffffffffffffffffffffffffffffffff167f8be0079c531659141344cd1fd0a4f28419497f9722a3daafe3b4186f6b6457e060405160405180910390a350600081116200012d576040517f08c379a0000000000000000000000000000000000000000000000000000000008152600401620001249062000286565b60405180910390fd5b81600160006101000a81548173ffffffffffffffffffffffffffffffffffffffff021916908373ffffffffffffffffffffffffffffffffffffffff1602179055508060028190555062000185620001cd60201b60201c565b600360006101000a81548173ffffffffffffffffffffffffffffffffffffffff021916908373ffffffffffffffffffffffffffffffffffffffff16021790555050506200032b565b600033905090565b600081519050620001e681620002f7565b92915050565b600081519050620001fd8162000311565b92915050565b600080604083850312156200021757600080fd5b60006200022785828601620001d5565b92505060206200023a85828601620001ec565b9150509250929050565b600062000253600983620002a8565b91507f7a65726f206665652e00000000000000000000000000000000000000000000006000830152602082019050919050565b60006020820190508181036000830152620002a18162000244565b9050919050565b600082825260208201905092915050565b6000620002c682620002cd565b9050919050565b600073ffffffffffffffffffffffffffffffffffffffff82169050919050565b6000819050919050565b6200030281620002b9565b81146200030e57600080fd5b50565b6200031c81620002ed565b81146200032857600080fd5b50565b611087806200033b6000396000f3fe608060405234801561001057600080fd5b506004361061009e5760003560e01c8063b45ea42011610066578063b45ea42014610121578063e2eb79e71461013f578063e78cea921461015b578063f2fde38b14610179578063f9496163146101955761009e565b806309824a80146100a357806332a58e79146100bf578063715018a6146100dd5780638da5cb5b146100e757806392be2ab814610105575b600080fd5b6100bd60048036038101906100b89190610b2f565b6101b1565b005b6100c761045b565b6040516100d49190610f74565b60405180910390f35b6100e5610465565b005b6100ef61059f565b6040516100fc9190610e1e565b60405180910390f35b61011f600480360381019061011a9190610bf9565b6105c8565b005b6101296106ac565b6040516101369190610e99565b60405180910390f35b61015960048036038101906101549190610b58565b6106d2565b005b610163610869565b6040516101709190610e1e565b60405180910390f35b610193600480360381019061018e9190610b2f565b61088f565b005b6101af60048036038101906101aa9190610b94565b610a38565b005b6000600460008373ffffffffffffffffffffffffffffffffffffffff1673ffffffffffffffffffffffffffffffffffffffff1681526020019081526020016000209050600015158160000160149054906101000a900460ff1615151461024c576040517f08c379a000000000000000000000000000000000000000000000000000000000815260040161024390610f54565b60405180910390fd5b600254600160009054906101000a900473ffffffffffffffffffffffffffffffffffffffff1673ffffffffffffffffffffffffffffffffffffffff1663dd62ed3e33306040518363ffffffff1660e01b81526004016102ac929190610e39565b60206040518083038186803b1580156102c457600080fd5b505afa1580156102d8573d6000803e3d6000fd5b505050506040513d601f19601f820116820180604052508101906102fc9190610c22565b101561033d576040517f08c379a000000000000000000000000000000000000000000000000000000000815260040161033490610ed4565b60405180910390fd5b600160009054906101000a900473ffffffffffffffffffffffffffffffffffffffff1673ffffffffffffffffffffffffffffffffffffffff166323b872dd33600360009054906101000a900473ffffffffffffffffffffffffffffffffffffffff166002546040518463ffffffff1660e01b81526004016103c093929190610e62565b602060405180830381600087803b1580156103da57600080fd5b505af11580156103ee573d6000803e3d6000fd5b505050506040513d601f19601f820116820180604052508101906104129190610bd0565b5060008160000160006101000a81548173ffffffffffffffffffffffffffffffffffffffff021916908373ffffffffffffffffffffffffffffffffffffffff1602179055505050565b6000600254905090565b61046d610ad3565b73ffffffffffffffffffffffffffffffffffffffff1661048b61059f565b73ffffffffffffffffffffffffffffffffffffffff16146104e1576040517f08c379a00000000000000000000000000000000000000000000000000000000081526004016104d890610f34565b60405180910390fd5b600073ffffffffffffffffffffffffffffffffffffffff1660008054906101000a900473ffffffffffffffffffffffffffffffffffffffff1673ffffffffffffffffffffffffffffffffffffffff167f8be0079c531659141344cd1fd0a4f28419497f9722a3daafe3b4186f6b6457e060405160405180910390a360008060006101000a81548173ffffffffffffffffffffffffffffffffffffffff021916908373ffffffffffffffffffffffffffffffffffffffff160217905550565b60008060009054906101000a900473ffffffffffffffffffffffffffffffffffffffff16905090565b6105d0610ad3565b73ffffffffffffffffffffffffffffffffffffffff16600360009054906101000a900473ffffffffffffffffffffffffffffffffffffffff1673ffffffffffffffffffffffffffffffffffffffff161461065f576040517f08c379a000000000000000000000000000000000000000000000000000000000815260040161065690610ef4565b60405180910390fd5b600081116106a2576040517f08c379a000000000000000000000000000000000000000000000000000000000815260040161069990610f14565b60405180910390fd5b8060028190555050565b600160009054906101000a900473ffffffffffffffffffffffffffffffffffffffff1681565b6106da610ad3565b73ffffffffffffffffffffffffffffffffffffffff16600360009054906101000a900473ffffffffffffffffffffffffffffffffffffffff1673ffffffffffffffffffffffffffffffffffffffff1614610769576040517f08c379a000000000000000000000000000000000000000000000000000000000815260040161076090610ef4565b60405180910390fd5b6000600460008473ffffffffffffffffffffffffffffffffffffffff1673ffffffffffffffffffffffffffffffffffffffff1681526020019081526020016000209050600015158160000160149054906101000a900460ff16151514610804576040517f08c379a00000000000000000000000000000000000000000000000000000000081526004016107fb90610f54565b60405180910390fd5b60018160000160146101000a81548160ff021916908315150217905550818160000160006101000a81548173ffffffffffffffffffffffffffffffffffffffff021916908373ffffffffffffffffffffffffffffffffffffffff160217905550505050565b600360009054906101000a900473ffffffffffffffffffffffffffffffffffffffff1681565b610897610ad3565b73ffffffffffffffffffffffffffffffffffffffff166108b561059f565b73ffffffffffffffffffffffffffffffffffffffff161461090b576040517f08c379a000000000000000000000000000000000000000000000000000000000815260040161090290610f34565b60405180910390fd5b600073ffffffffffffffffffffffffffffffffffffffff168173ffffffffffffffffffffffffffffffffffffffff16141561097b576040517f08c379a000000000000000000000000000000000000000000000000000000000815260040161097290610eb4565b60405180910390fd5b8073ffffffffffffffffffffffffffffffffffffffff1660008054906101000a900473ffffffffffffffffffffffffffffffffffffffff1673ffffffffffffffffffffffffffffffffffffffff167f8be0079c531659141344cd1fd0a4f28419497f9722a3daafe3b4186f6b6457e060405160405180910390a3806000806101000a81548173ffffffffffffffffffffffffffffffffffffffff021916908373ffffffffffffffffffffffffffffffffffffffff16021790555050565b610a40610ad3565b73ffffffffffffffffffffffffffffffffffffffff16600360009054906101000a900473ffffffffffffffffffffffffffffffffffffffff1673ffffffffffffffffffffffffffffffffffffffff1614610acf576040517f08c379a0000000000000000000000000000000000000000000000000000000008152600401610ac690610ef4565b60405180910390fd5b5050565b600033905090565b600081359050610aea8161100c565b92915050565b600081519050610aff81611023565b92915050565b600081359050610b148161103a565b92915050565b600081519050610b298161103a565b92915050565b600060208284031215610b4157600080fd5b6000610b4f84828501610adb565b91505092915050565b60008060408385031215610b6b57600080fd5b6000610b7985828601610adb565b9250506020610b8a85828601610adb565b9150509250929050565b60008060408385031215610ba757600080fd5b6000610bb585828601610adb565b9250506020610bc685828601610b05565b9150509250929050565b600060208284031215610be257600080fd5b6000610bf084828501610af0565b91505092915050565b600060208284031215610c0b57600080fd5b6000610c1984828501610b05565b91505092915050565b600060208284031215610c3457600080fd5b6000610c4284828501610b1a565b91505092915050565b610c5481610fa0565b82525050565b610c6381610fe8565b82525050565b6000610c76602683610f8f565b91507f4f776e61626c653a206e6577206f776e657220697320746865207a65726f206160008301527f64647265737300000000000000000000000000000000000000000000000000006020830152604082019050919050565b6000610cdc600c83610f8f565b91507f6e6f20616c6c6f77616e636500000000000000000000000000000000000000006000830152602082019050919050565b6000610d1c600b83610f8f565b91507f6f6e6c79206272696467650000000000000000000000000000000000000000006000830152602082019050919050565b6000610d5c601183610f8f565b91507f7a65726f207265676973746572206665650000000000000000000000000000006000830152602082019050919050565b6000610d9c602083610f8f565b91507f4f776e61626c653a2063616c6c6572206973206e6f7420746865206f776e65726000830152602082019050919050565b6000610ddc601183610f8f565b91507f616c7265616479206163746976617465640000000000000000000000000000006000830152602082019050919050565b610e1881610fde565b82525050565b6000602082019050610e336000830184610c4b565b92915050565b6000604082019050610e4e6000830185610c4b565b610e5b6020830184610c4b565b9392505050565b6000606082019050610e776000830186610c4b565b610e846020830185610c4b565b610e916040830184610e0f565b949350505050565b6000602082019050610eae6000830184610c5a565b92915050565b60006020820190508181036000830152610ecd81610c69565b9050919050565b60006020820190508181036000830152610eed81610ccf565b9050919050565b60006020820190508181036000830152610f0d81610d0f565b9050919050565b60006020820190508181036000830152610f2d81610d4f565b9050919050565b60006020820190508181036000830152610f4d81610d8f565b9050919050565b60006020820190508181036000830152610f6d81610dcf565b9050919050565b6000602082019050610f896000830184610e0f565b92915050565b600082825260208201905092915050565b6000610fab82610fbe565b9050919050565b60008115159050919050565b600073ffffffffffffffffffffffffffffffffffffffff82169050919050565b6000819050919050565b6000610ff382610ffa565b9050919050565b600061100582610fbe565b9050919050565b61101581610fa0565b811461102057600080fd5b50565b61102c81610fb2565b811461103757600080fd5b50565b61104381610fde565b811461104e57600080fd5b5056fea2646970667358221220be4ea738a20de6b2b89dd40ca62996df86df88c8601d5051485d4767c073972964736f6c63430008000033",
  "immutableReferences": {},
  "source": "// SPDX-License-Identifier: MIT\npragma solidity 0.8.0;\n\nimport \"@openzeppelin/contracts/token/ERC20/IERC20.sol\";\nimport \"@openzeppelin/contracts/token/ERC20/utils/SafeERC20.sol\";\nimport \"@openzeppelin/contracts/access/Ownable.sol\";\n\n/**\n * @dev PackLock is a smartcontract, where users are\n * locking their tokens that they are swapped to another blockchain\n */\ncontract PakLock is Ownable {\n    using SafeERC20 for IERC20;\n\n    /// @notice PakBridge (PAK) token to use in fee for any transaction.\n    IERC20 public pak;\n\n    /// @dev the amount to use for registration\n    uint256 private registerFee;\n\n    /// @notice the address of bridge (the cosmos chain) representer.\n    /// This representer ideally should act after voting process in the bridge.\n    address public bridge;\n\n    /// @dev Struct to track the registered tokens\n    struct RegisteredToken {\n\taddress targetToken;    // The token address deployed on\n\t                        // another blockchain\n\tbool active;            // Whether it was activated or not\n\t                        // means whether the token was deployed or not.\n    }\n    /// @dev Track registered tokens\n    mapping(address => RegisteredToken) registeredTokens;\n    \n    constructor(address _pakAddress, uint256 _registerFee) {\n\trequire(_registerFee > 0, \"zero fee.\");\n\t\n\tpak = IERC20(_pakAddress);\n\tregisterFee = _registerFee;\n\n\tbridge = _msgSender();\n    }\n\n    modifier onlyBridge() {\n\trequire(bridge == _msgSender(), \"only bridge\");\n\t_;\n    }\n\n    /**\n     * @dev Return amount of PAK token to use for registration of a new bridge.\n     */\n    function getRegisterFee() external view returns(uint256) {\n\treturn registerFee;\n    }\n\n    /**\n     * @notice update the register fee\n     */\n    function setRegisterFee(uint256 _registerFee) external onlyBridge {\n\trequire(_registerFee > 0, \"zero register fee\");\n\tregisterFee = _registerFee;\n    }\n\n    /**\n     * @notice Register a token to be bridged\n     */\n    function registerToken(address _token) external {\n        RegisteredToken storage _registeredToken = registeredTokens[_token];\n\trequire(_registeredToken.active == false, \"already activated\");\n\n\t/// We should redeem the PakBridge token for registeration fee\n\trequire(pak.allowance(msg.sender, address(this)) >= registerFee, \"no allowance\");\t\n\tpak.transferFrom(msg.sender, bridge, registerFee);\n\t\n        _registeredToken.targetToken = address(0);\n    }\n\n    /**\n     * @dev Activate registered token by passing the token address\n     * in another blockchain\n     */\n    function activateRegistration(address _source, address _target) external onlyBridge {\n        RegisteredToken storage _registeredToken = registeredTokens[_source];\n\trequire(_registeredToken.active == false, \"already activated\");\t\n\n\t_registeredToken.active = true;\n\t_registeredToken.targetToken = _target;\n    }\n\n    /**\n     * @notice Deploy a new contract that is mapped to the token in another blockchain\n     */\n    function deployToken(address _sourceToken, uint256 _totalSupply) external onlyBridge {\n\n    }\n}\n",
  "sourcePath": "/home/alp/smartcontracts/contracts/PakLock.sol",
  "compiler": {
    "name": "solc",
    "version": "0.8.0+commit.c7dfd78e.Emscripten.clang"
  },
  "schemaVersion": "3.4.1",
  "updatedAt": "2021-06-27T07:46:52.179Z",
  "networkType": "ethereum",
  "devdoc": {
    "details": "PackLock is a smartcontract, where users are locking their tokens that they are swapped to another blockchain",
    "kind": "dev",
    "methods": {
      "activateRegistration(address,address)": {
        "details": "Activate registered token by passing the token address in another blockchain"
      },
      "getRegisterFee()": {
        "details": "Return amount of PAK token to use for registration of a new bridge."
      },
      "owner()": {
        "details": "Returns the address of the current owner."
      },
      "renounceOwnership()": {
        "details": "Leaves the contract without owner. It will not be possible to call `onlyOwner` functions anymore. Can only be called by the current owner. NOTE: Renouncing ownership will leave the contract without an owner, thereby removing any functionality that is only available to the owner."
      },
      "transferOwnership(address)": {
        "details": "Transfers ownership of the contract to a new account (`newOwner`). Can only be called by the current owner."
      }
    },
    "stateVariables": {
      "registerFee": {
        "details": "the amount to use for registration"
      },
      "registeredTokens": {
        "details": "Track registered tokens"
      }
    },
    "version": 1
  },
  "userdoc": {
    "kind": "user",
    "methods": {
      "bridge()": {
        "notice": "the address of bridge (the cosmos chain) representer. This representer ideally should act after voting process in the bridge."
      },
      "deployToken(address,uint256)": {
        "notice": "Deploy a new contract that is mapped to the token in another blockchain"
      },
      "pak()": {
        "notice": "PakBridge (PAK) token to use in fee for any transaction."
      },
      "registerToken(address)": {
        "notice": "Register a token to be bridged"
      },
      "setRegisterFee(uint256)": {
        "notice": "update the register fee"
      }
    },
    "version": 1
  }
}