{
  "contractName": "PakLock",
  "abi": [
    {
      "inputs": [
        {
          "internalType": "address",
          "name": "_pakAddress",
          "type": "address"
        },
        {
          "internalType": "uint256",
          "name": "_registerFee",
          "type": "uint256"
        },
        {
          "internalType": "uint256",
          "name": "_swapFee",
          "type": "uint256"
        }
      ],
      "stateMutability": "nonpayable",
      "type": "constructor"
    },
    {
      "anonymous": false,
      "inputs": [
        {
          "indexed": true,
          "internalType": "address",
          "name": "source",
          "type": "address"
        },
        {
          "indexed": true,
          "internalType": "address",
          "name": "target",
          "type": "address"
        }
      ],
      "name": "ActivateToken",
      "type": "event"
    },
    {
      "anonymous": false,
      "inputs": [
        {
          "indexed": true,
          "internalType": "address",
          "name": "source",
          "type": "address"
        },
        {
          "indexed": true,
          "internalType": "address",
          "name": "target",
          "type": "address"
        },
        {
          "indexed": false,
          "internalType": "uint256",
          "name": "totalSupply",
          "type": "uint256"
        },
        {
          "indexed": false,
          "internalType": "string",
          "name": "name",
          "type": "string"
        },
        {
          "indexed": false,
          "internalType": "string",
          "name": "symbol",
          "type": "string"
        }
      ],
      "name": "DeployToken",
      "type": "event"
    },
    {
      "anonymous": false,
      "inputs": [
        {
          "indexed": true,
          "internalType": "address",
          "name": "previousOwner",
          "type": "address"
        },
        {
          "indexed": true,
          "internalType": "address",
          "name": "newOwner",
          "type": "address"
        }
      ],
      "name": "OwnershipTransferred",
      "type": "event"
    },
    {
      "anonymous": false,
      "inputs": [
        {
          "indexed": true,
          "internalType": "address",
          "name": "token",
          "type": "address"
        }
      ],
      "name": "RegisterToken",
      "type": "event"
    },
    {
      "anonymous": false,
      "inputs": [
        {
          "indexed": true,
          "internalType": "address",
          "name": "user",
          "type": "address"
        },
        {
          "indexed": true,
          "internalType": "address",
          "name": "source",
          "type": "address"
        },
        {
          "indexed": true,
          "internalType": "address",
          "name": "target",
          "type": "address"
        },
        {
          "indexed": false,
          "internalType": "uint256",
          "name": "amount",
          "type": "uint256"
        }
      ],
      "name": "SwapBegin",
      "type": "event"
    },
    {
      "anonymous": false,
      "inputs": [
        {
          "indexed": true,
          "internalType": "address",
          "name": "user",
          "type": "address"
        },
        {
          "indexed": true,
          "internalType": "address",
          "name": "source",
          "type": "address"
        },
        {
          "indexed": true,
          "internalType": "address",
          "name": "target",
          "type": "address"
        },
        {
          "indexed": false,
          "internalType": "uint256",
          "name": "amount",
          "type": "uint256"
        }
      ],
      "name": "SwapEnd",
      "type": "event"
    },
    {
      "inputs": [],
      "name": "bridge",
      "outputs": [
        {
          "internalType": "address",
          "name": "",
          "type": "address"
        }
      ],
      "stateMutability": "view",
      "type": "function"
    },
    {
      "inputs": [],
      "name": "lockAmount",
      "outputs": [
        {
          "internalType": "uint256",
          "name": "",
          "type": "uint256"
        }
      ],
      "stateMutability": "view",
      "type": "function"
    },
    {
      "inputs": [],
      "name": "owner",
      "outputs": [
        {
          "internalType": "address",
          "name": "",
          "type": "address"
        }
      ],
      "stateMutability": "view",
      "type": "function"
    },
    {
      "inputs": [],
      "name": "pak",
      "outputs": [
        {
          "internalType": "contract IERC20",
          "name": "",
          "type": "address"
        }
      ],
      "stateMutability": "view",
      "type": "function"
    },
    {
      "inputs": [],
      "name": "renounceOwnership",
      "outputs": [],
      "stateMutability": "nonpayable",
      "type": "function"
    },
    {
      "inputs": [
        {
          "internalType": "address",
          "name": "newOwner",
          "type": "address"
        }
      ],
      "name": "transferOwnership",
      "outputs": [],
      "stateMutability": "nonpayable",
      "type": "function"
    },
    {
      "inputs": [],
      "name": "getRegisterFee",
      "outputs": [
        {
          "internalType": "uint256",
          "name": "",
          "type": "uint256"
        }
      ],
      "stateMutability": "view",
      "type": "function"
    },
    {
      "inputs": [
        {
          "internalType": "uint256",
          "name": "_registerFee",
          "type": "uint256"
        }
      ],
      "name": "setRegisterFee",
      "outputs": [],
      "stateMutability": "nonpayable",
      "type": "function"
    },
    {
      "inputs": [
        {
          "internalType": "address",
          "name": "_token",
          "type": "address"
        }
      ],
      "name": "registerToken",
      "outputs": [],
      "stateMutability": "nonpayable",
      "type": "function"
    },
    {
      "inputs": [
        {
          "internalType": "address",
          "name": "_source",
          "type": "address"
        },
        {
          "internalType": "address",
          "name": "_target",
          "type": "address"
        }
      ],
      "name": "activateRegistration",
      "outputs": [],
      "stateMutability": "nonpayable",
      "type": "function"
    },
    {
      "inputs": [
        {
          "internalType": "address",
          "name": "_sourceToken",
          "type": "address"
        },
        {
          "internalType": "uint256",
          "name": "_totalSupply",
          "type": "uint256"
        },
        {
          "internalType": "string",
          "name": "_name",
          "type": "string"
        },
        {
          "internalType": "string",
          "name": "_symbol",
          "type": "string"
        }
      ],
      "name": "deployToken",
      "outputs": [
        {
          "internalType": "address",
          "name": "_targetToken",
          "type": "address"
        }
      ],
      "stateMutability": "nonpayable",
      "type": "function"
    },
    {
      "inputs": [],
      "name": "getSwapFee",
      "outputs": [
        {
          "internalType": "uint256",
          "name": "",
          "type": "uint256"
        }
      ],
      "stateMutability": "view",
      "type": "function"
    },
    {
      "inputs": [
        {
          "internalType": "uint256",
          "name": "_swapFee",
          "type": "uint256"
        }
      ],
      "name": "setSwapFee",
      "outputs": [],
      "stateMutability": "nonpayable",
      "type": "function"
    },
    {
      "inputs": [
        {
          "internalType": "address",
          "name": "_token",
          "type": "address"
        },
        {
          "internalType": "uint256",
          "name": "_amount",
          "type": "uint256"
        }
      ],
      "name": "beginSwap",
      "outputs": [],
      "stateMutability": "nonpayable",
      "type": "function"
    },
    {
      "inputs": [
        {
          "internalType": "address",
          "name": "_token",
          "type": "address"
        }
      ],
      "name": "dangerBeginSwap",
      "outputs": [],
      "stateMutability": "view",
      "type": "function"
    },
    {
      "inputs": [
        {
          "internalType": "address",
          "name": "_token",
          "type": "address"
        }
      ],
      "name": "dangerEndSwap",
      "outputs": [],
      "stateMutability": "view",
      "type": "function"
    },
    {
      "inputs": [
        {
          "internalType": "address",
          "name": "_user",
          "type": "address"
        },
        {
          "internalType": "address",
          "name": "_token",
          "type": "address"
        },
        {
          "internalType": "uint256",
          "name": "_amount",
          "type": "uint256"
        }
      ],
      "name": "endSwap",
      "outputs": [],
      "stateMutability": "nonpayable",
      "type": "function"
    }
  ],
  "bytecode": "0x60806040523480156200001157600080fd5b506040516200450438038062004504833981810160405281019062000037919062000251565b6000620000496200021b60201b60201c565b9050806000806101000a81548173ffffffffffffffffffffffffffffffffffffffff021916908373ffffffffffffffffffffffffffffffffffffffff1602179055508073ffffffffffffffffffffffffffffffffffffffff16600073ffffffffffffffffffffffffffffffffffffffff167f8be0079c531659141344cd1fd0a4f28419497f9722a3daafe3b4186f6b6457e060405160405180910390a350600082116200012d576040517f08c379a000000000000000000000000000000000000000000000000000000000815260040162000124906200034d565b60405180910390fd5b6000811162000173576040517f08c379a00000000000000000000000000000000000000000000000000000000081526004016200016a906200032b565b60405180910390fd5b82600160006101000a81548173ffffffffffffffffffffffffffffffffffffffff021916908373ffffffffffffffffffffffffffffffffffffffff1602179055508160028190555080600581905550620001d26200021b60201b60201c565b600360006101000a81548173ffffffffffffffffffffffffffffffffffffffff021916908373ffffffffffffffffffffffffffffffffffffffff160217905550505050620003f2565b600033905090565b6000815190506200023481620003be565b92915050565b6000815190506200024b81620003d8565b92915050565b6000806000606084860312156200026757600080fd5b6000620002778682870162000223565b93505060206200028a868287016200023a565b92505060406200029d868287016200023a565b9150509250925092565b6000620002b6600e836200036f565b91507f73776170207a65726f206665652e0000000000000000000000000000000000006000830152602082019050919050565b6000620002f86012836200036f565b91507f7265676973746572207a65726f206665652e00000000000000000000000000006000830152602082019050919050565b600060208201905081810360008301526200034681620002a7565b9050919050565b600060208201905081810360008301526200036881620002e9565b9050919050565b600082825260208201905092915050565b60006200038d8262000394565b9050919050565b600073ffffffffffffffffffffffffffffffffffffffff82169050919050565b6000819050919050565b620003c98162000380565b8114620003d557600080fd5b50565b620003e381620003b4565b8114620003ef57600080fd5b50565b61410280620004026000396000f3fe608060405234801561001057600080fd5b506004361061010b5760003560e01c806392be2ab8116100a2578063d8df5dc111610071578063d8df5dc11461026a578063e2eb79e714610288578063e78cea92146102a4578063f262522f146102c2578063f2fde38b146102de5761010b565b806392be2ab8146101f657806395e17d9f14610212578063b45ea4201461022e578063d4cadf681461024c5761010b565b806334e19907116100de57806334e19907146101965780633d57eeb2146101b2578063715018a6146101ce5780638da5cb5b146101d85761010b565b806308b99e2b1461011057806309824a80146101405780632332e8b21461015c57806332a58e7914610178575b600080fd5b61012a60048036038101906101259190611e4a565b6102fa565b604051610137919061237a565b60405180910390f35b61015a60048036038101906101559190611d5a565b6106e3565b005b61017660048036038101906101719190611dbf565b6109d6565b005b610180610dc2565b60405161018d91906125f9565b60405180910390f35b6101b060048036038101906101ab9190611f0e565b610dcc565b005b6101cc60048036038101906101c79190611d5a565b610eb0565b005b6101d6610f4a565b005b6101e0611084565b6040516101ed919061237a565b60405180910390f35b610210600480360381019061020b9190611f0e565b6110ad565b005b61022c60048036038101906102279190611e0e565b611191565b005b61023661181f565b60405161024391906123f5565b60405180910390f35b610254611845565b60405161026191906125f9565b60405180910390f35b61027261184f565b60405161027f91906125f9565b60405180910390f35b6102a2600480360381019061029d9190611d83565b611855565b005b6102ac611a46565b6040516102b9919061237a565b60405180910390f35b6102dc60048036038101906102d79190611d5a565b611a6c565b005b6102f860048036038101906102f39190611d5a565b611afe565b005b6000610304611ca7565b73ffffffffffffffffffffffffffffffffffffffff16600360009054906101000a900473ffffffffffffffffffffffffffffffffffffffff1673ffffffffffffffffffffffffffffffffffffffff1614610393576040517f08c379a000000000000000000000000000000000000000000000000000000000815260040161038a90612519565b60405180910390fd5b6000604051806020016103a590611caf565b6020820181038252601f19601f820116604052509050600088886040516020016103d092919061234e565b604051602081830303815290604052805190602001209050808251602084016000f59250600460008473ffffffffffffffffffffffffffffffffffffffff1673ffffffffffffffffffffffffffffffffffffffff16815260200190815260200160002060000160149054906101000a900460ff16610483576040517f08c379a000000000000000000000000000000000000000000000000000000000815260040161047a90612459565b60405180910390fd5b60405180604001604052808a73ffffffffffffffffffffffffffffffffffffffff16815260200160011515815250600460008573ffffffffffffffffffffffffffffffffffffffff1673ffffffffffffffffffffffffffffffffffffffff16815260200190815260200160002060008201518160000160006101000a81548173ffffffffffffffffffffffffffffffffffffffff021916908373ffffffffffffffffffffffffffffffffffffffff16021790555060208201518160000160146101000a81548160ff0219169083151502179055509050508273ffffffffffffffffffffffffffffffffffffffff1663b119490e888888888d6040518663ffffffff1660e01b815260040161059b959493929190612410565b600060405180830381600087803b1580156105b557600080fd5b505af11580156105c9573d6000803e3d6000fd5b505050508273ffffffffffffffffffffffffffffffffffffffff168973ffffffffffffffffffffffffffffffffffffffff167fe8bdd9fce77119cdf785a57476e6573d6dfd1cdab032f1d7a5a2d29144cace768a8a8a8a8a604051610632959493929190612614565b60405180910390a38273ffffffffffffffffffffffffffffffffffffffff167ff7fe8023cb2e36bde1d59a88ac5763a8c11be6d25e6819f71bb7e23e5bf0dc1660405160405180910390a28873ffffffffffffffffffffffffffffffffffffffff168373ffffffffffffffffffffffffffffffffffffffff167fdd563a35d235972942faef8318faefeef1a900e39f7f17823513249b3f9926d460405160405180910390a350509695505050505050565b6000600460008373ffffffffffffffffffffffffffffffffffffffff1673ffffffffffffffffffffffffffffffffffffffff1681526020019081526020016000209050600015158160000160149054906101000a900460ff1615151461077e576040517f08c379a0000000000000000000000000000000000000000000000000000000008152600401610775906125b9565b60405180910390fd5b6000600160009054906101000a900473ffffffffffffffffffffffffffffffffffffffff1673ffffffffffffffffffffffffffffffffffffffff1663dd62ed3e33306040518363ffffffff1660e01b81526004016107dd929190612395565b60206040518083038186803b1580156107f557600080fd5b505afa158015610809573d6000803e3d6000fd5b505050506040513d601f19601f8201168201806040525081019061082d9190611f37565b9050600254811015610874576040517f08c379a000000000000000000000000000000000000000000000000000000000815260040161086b906124b9565b60405180910390fd5b600160009054906101000a900473ffffffffffffffffffffffffffffffffffffffff1673ffffffffffffffffffffffffffffffffffffffff166323b872dd33600360009054906101000a900473ffffffffffffffffffffffffffffffffffffffff166002546040518463ffffffff1660e01b81526004016108f7939291906123be565b602060405180830381600087803b15801561091157600080fd5b505af1158015610925573d6000803e3d6000fd5b505050506040513d601f19601f820116820180604052508101906109499190611ee5565b5060008260000160006101000a81548173ffffffffffffffffffffffffffffffffffffffff021916908373ffffffffffffffffffffffffffffffffffffffff1602179055508273ffffffffffffffffffffffffffffffffffffffff167ff7fe8023cb2e36bde1d59a88ac5763a8c11be6d25e6819f71bb7e23e5bf0dc1660405160405180910390a2505050565b6109de611ca7565b73ffffffffffffffffffffffffffffffffffffffff16600360009054906101000a900473ffffffffffffffffffffffffffffffffffffffff1673ffffffffffffffffffffffffffffffffffffffff1614610a6d576040517f08c379a0000000000000000000000000000000000000000000000000000000008152600401610a6490612519565b60405180910390fd5b600854811115610ab2576040517f08c379a0000000000000000000000000000000000000000000000000000000008152600401610aa990612579565b60405180910390fd5b600460008373ffffffffffffffffffffffffffffffffffffffff1673ffffffffffffffffffffffffffffffffffffffff16815260200190815260200160002060000160149054906101000a900460ff16610b41576040517f08c379a0000000000000000000000000000000000000000000000000000000008152600401610b3890612499565b60405180910390fd5b60008290508073ffffffffffffffffffffffffffffffffffffffff166323b872dd3086856040518463ffffffff1660e01b8152600401610b83939291906123be565b602060405180830381600087803b158015610b9d57600080fd5b505af1158015610bb1573d6000803e3d6000fd5b505050506040513d601f19601f82011682018060405250810190610bd59190611ee5565b5081600760008573ffffffffffffffffffffffffffffffffffffffff1673ffffffffffffffffffffffffffffffffffffffff16815260200190815260200160002060008673ffffffffffffffffffffffffffffffffffffffff1673ffffffffffffffffffffffffffffffffffffffff16815260200190815260200160002054610c5e919061266e565b600760008573ffffffffffffffffffffffffffffffffffffffff1673ffffffffffffffffffffffffffffffffffffffff16815260200190815260200160002060003373ffffffffffffffffffffffffffffffffffffffff1673ffffffffffffffffffffffffffffffffffffffff16815260200190815260200160002081905550600460008473ffffffffffffffffffffffffffffffffffffffff1673ffffffffffffffffffffffffffffffffffffffff16815260200190815260200160002060000160009054906101000a900473ffffffffffffffffffffffffffffffffffffffff1673ffffffffffffffffffffffffffffffffffffffff168373ffffffffffffffffffffffffffffffffffffffff168573ffffffffffffffffffffffffffffffffffffffff167f9fb7393f373aeee7b64cf3a312cff74e8f808410bdf377f4f196829e0bc0ae5185604051610db491906125f9565b60405180910390a450505050565b6000600254905090565b610dd4611ca7565b73ffffffffffffffffffffffffffffffffffffffff16600360009054906101000a900473ffffffffffffffffffffffffffffffffffffffff1673ffffffffffffffffffffffffffffffffffffffff1614610e63576040517f08c379a0000000000000000000000000000000000000000000000000000000008152600401610e5a90612519565b60405180910390fd5b60008111610ea6576040517f08c379a0000000000000000000000000000000000000000000000000000000008152600401610e9d90612539565b60405180910390fd5b8060058190555050565b610eb8611ca7565b73ffffffffffffffffffffffffffffffffffffffff16600360009054906101000a900473ffffffffffffffffffffffffffffffffffffffff1673ffffffffffffffffffffffffffffffffffffffff1614610f47576040517f08c379a0000000000000000000000000000000000000000000000000000000008152600401610f3e90612519565b60405180910390fd5b50565b610f52611ca7565b73ffffffffffffffffffffffffffffffffffffffff16610f70611084565b73ffffffffffffffffffffffffffffffffffffffff1614610fc6576040517f08c379a0000000000000000000000000000000000000000000000000000000008152600401610fbd90612559565b60405180910390fd5b600073ffffffffffffffffffffffffffffffffffffffff1660008054906101000a900473ffffffffffffffffffffffffffffffffffffffff1673ffffffffffffffffffffffffffffffffffffffff167f8be0079c531659141344cd1fd0a4f28419497f9722a3daafe3b4186f6b6457e060405160405180910390a360008060006101000a81548173ffffffffffffffffffffffffffffffffffffffff021916908373ffffffffffffffffffffffffffffffffffffffff160217905550565b60008060009054906101000a900473ffffffffffffffffffffffffffffffffffffffff16905090565b6110b5611ca7565b73ffffffffffffffffffffffffffffffffffffffff16600360009054906101000a900473ffffffffffffffffffffffffffffffffffffffff1673ffffffffffffffffffffffffffffffffffffffff1614611144576040517f08c379a000000000000000000000000000000000000000000000000000000000815260040161113b90612519565b60405180910390fd5b60008111611187576040517f08c379a000000000000000000000000000000000000000000000000000000000815260040161117e90612539565b60405180910390fd5b8060028190555050565b600460008373ffffffffffffffffffffffffffffffffffffffff1673ffffffffffffffffffffffffffffffffffffffff16815260200190815260200160002060000160149054906101000a900460ff16611220576040517f08c379a000000000000000000000000000000000000000000000000000000000815260040161121790612599565b60405180910390fd5b6000600160009054906101000a900473ffffffffffffffffffffffffffffffffffffffff1673ffffffffffffffffffffffffffffffffffffffff1663dd62ed3e33306040518363ffffffff1660e01b815260040161127f929190612395565b60206040518083038186803b15801561129757600080fd5b505afa1580156112ab573d6000803e3d6000fd5b505050506040513d601f19601f820116820180604052508101906112cf9190611f37565b9050600554811015611316576040517f08c379a000000000000000000000000000000000000000000000000000000000815260040161130d906125d9565b60405180910390fd5b6000839050828173ffffffffffffffffffffffffffffffffffffffff166370a08231336040518263ffffffff1660e01b8152600401611355919061237a565b60206040518083038186803b15801561136d57600080fd5b505afa158015611381573d6000803e3d6000fd5b505050506040513d601f19601f820116820180604052508101906113a59190611f37565b10156113e6576040517f08c379a00000000000000000000000000000000000000000000000000000000081526004016113dd906124d9565b60405180910390fd5b60008173ffffffffffffffffffffffffffffffffffffffff1663dd62ed3e33306040518363ffffffff1660e01b8152600401611423929190612395565b60206040518083038186803b15801561143b57600080fd5b505afa15801561144f573d6000803e3d6000fd5b505050506040513d601f19601f820116820180604052508101906114739190611f37565b9050838110156114b8576040517f08c379a00000000000000000000000000000000000000000000000000000000081526004016114af906124f9565b60405180910390fd5b600160009054906101000a900473ffffffffffffffffffffffffffffffffffffffff1673ffffffffffffffffffffffffffffffffffffffff166323b872dd33600360009054906101000a900473ffffffffffffffffffffffffffffffffffffffff166005546040518463ffffffff1660e01b815260040161153b939291906123be565b602060405180830381600087803b15801561155557600080fd5b505af1158015611569573d6000803e3d6000fd5b505050506040513d601f19601f8201168201806040525081019061158d9190611ee5565b508173ffffffffffffffffffffffffffffffffffffffff166323b872dd3330876040518463ffffffff1660e01b81526004016115cb939291906123be565b602060405180830381600087803b1580156115e557600080fd5b505af11580156115f9573d6000803e3d6000fd5b505050506040513d601f19601f8201168201806040525081019061161d9190611ee5565b5083600660008773ffffffffffffffffffffffffffffffffffffffff1673ffffffffffffffffffffffffffffffffffffffff16815260200190815260200160002060003373ffffffffffffffffffffffffffffffffffffffff1673ffffffffffffffffffffffffffffffffffffffff168152602001908152602001600020546116a6919061266e565b600660008773ffffffffffffffffffffffffffffffffffffffff1673ffffffffffffffffffffffffffffffffffffffff16815260200190815260200160002060003373ffffffffffffffffffffffffffffffffffffffff1673ffffffffffffffffffffffffffffffffffffffff1681526020019081526020016000208190555083600854611734919061266e565b600881905550600460008673ffffffffffffffffffffffffffffffffffffffff1673ffffffffffffffffffffffffffffffffffffffff16815260200190815260200160002060000160009054906101000a900473ffffffffffffffffffffffffffffffffffffffff1673ffffffffffffffffffffffffffffffffffffffff168573ffffffffffffffffffffffffffffffffffffffff163373ffffffffffffffffffffffffffffffffffffffff167f1edfb050dfa21d8e216d56d17c5addb1d9a230100359dcd4172527d7c8a5c2a48760405161181091906125f9565b60405180910390a45050505050565b600160009054906101000a900473ffffffffffffffffffffffffffffffffffffffff1681565b6000600554905090565b60085481565b61185d611ca7565b73ffffffffffffffffffffffffffffffffffffffff16600360009054906101000a900473ffffffffffffffffffffffffffffffffffffffff1673ffffffffffffffffffffffffffffffffffffffff16146118ec576040517f08c379a00000000000000000000000000000000000000000000000000000000081526004016118e390612519565b60405180910390fd5b6000600460008473ffffffffffffffffffffffffffffffffffffffff1673ffffffffffffffffffffffffffffffffffffffff1681526020019081526020016000209050600015158160000160149054906101000a900460ff16151514611987576040517f08c379a000000000000000000000000000000000000000000000000000000000815260040161197e906125b9565b60405180910390fd5b60018160000160146101000a81548160ff021916908315150217905550818160000160006101000a81548173ffffffffffffffffffffffffffffffffffffffff021916908373ffffffffffffffffffffffffffffffffffffffff1602179055508173ffffffffffffffffffffffffffffffffffffffff168373ffffffffffffffffffffffffffffffffffffffff167fdd563a35d235972942faef8318faefeef1a900e39f7f17823513249b3f9926d460405160405180910390a3505050565b600360009054906101000a900473ffffffffffffffffffffffffffffffffffffffff1681565b600460008273ffffffffffffffffffffffffffffffffffffffff1673ffffffffffffffffffffffffffffffffffffffff16815260200190815260200160002060000160149054906101000a900460ff16611afb576040517f08c379a0000000000000000000000000000000000000000000000000000000008152600401611af290612499565b60405180910390fd5b50565b611b06611ca7565b73ffffffffffffffffffffffffffffffffffffffff16611b24611084565b73ffffffffffffffffffffffffffffffffffffffff1614611b7a576040517f08c379a0000000000000000000000000000000000000000000000000000000008152600401611b7190612559565b60405180910390fd5b600073ffffffffffffffffffffffffffffffffffffffff168173ffffffffffffffffffffffffffffffffffffffff161415611bea576040517f08c379a0000000000000000000000000000000000000000000000000000000008152600401611be190612479565b60405180910390fd5b8073ffffffffffffffffffffffffffffffffffffffff1660008054906101000a900473ffffffffffffffffffffffffffffffffffffffff1673ffffffffffffffffffffffffffffffffffffffff167f8be0079c531659141344cd1fd0a4f28419497f9722a3daafe3b4186f6b6457e060405160405180910390a3806000806101000a81548173ffffffffffffffffffffffffffffffffffffffff021916908373ffffffffffffffffffffffffffffffffffffffff16021790555050565b600033905090565b6118cd8061280083390190565b600081359050611ccb816127ba565b92915050565b600081519050611ce0816127d1565b92915050565b60008083601f840112611cf857600080fd5b8235905067ffffffffffffffff811115611d1157600080fd5b602083019150836001820283011115611d2957600080fd5b9250929050565b600081359050611d3f816127e8565b92915050565b600081519050611d54816127e8565b92915050565b600060208284031215611d6c57600080fd5b6000611d7a84828501611cbc565b91505092915050565b60008060408385031215611d9657600080fd5b6000611da485828601611cbc565b9250506020611db585828601611cbc565b9150509250929050565b600080600060608486031215611dd457600080fd5b6000611de286828701611cbc565b9350506020611df386828701611cbc565b9250506040611e0486828701611d30565b9150509250925092565b60008060408385031215611e2157600080fd5b6000611e2f85828601611cbc565b9250506020611e4085828601611d30565b9150509250929050565b60008060008060008060808789031215611e6357600080fd5b6000611e7189828a01611cbc565b9650506020611e8289828a01611d30565b955050604087013567ffffffffffffffff811115611e9f57600080fd5b611eab89828a01611ce6565b9450945050606087013567ffffffffffffffff811115611eca57600080fd5b611ed689828a01611ce6565b92509250509295509295509295565b600060208284031215611ef757600080fd5b6000611f0584828501611cd1565b91505092915050565b600060208284031215611f2057600080fd5b6000611f2e84828501611d30565b91505092915050565b600060208284031215611f4957600080fd5b6000611f5784828501611d45565b91505092915050565b611f69816126c4565b82525050565b611f80611f7b826126c4565b61273f565b82525050565b611f8f8161270c565b82525050565b6000611fa1838561265d565b9350611fae838584612730565b611fb78361279c565b840190509392505050565b6000611fcf60108361265d565b91507f616c7265616479206465706c6f796564000000000000000000000000000000006000830152602082019050919050565b600061200f60268361265d565b91507f4f776e61626c653a206e6577206f776e657220697320746865207a65726f206160008301527f64647265737300000000000000000000000000000000000000000000000000006020830152604082019050919050565b6000612075600a8361265d565b91507f6e6f7420616374697665000000000000000000000000000000000000000000006000830152602082019050919050565b60006120b5600c8361265d565b91507f6e6f20616c6c6f77616e636500000000000000000000000000000000000000006000830152602082019050919050565b60006120f560128361265d565b91507f6e6f7420656e6f7567682062616c616e636500000000000000000000000000006000830152602082019050919050565b600061213560118361265d565b91507f6e6f206c6f636b20616c6c6f77616e63650000000000000000000000000000006000830152602082019050919050565b6000612175600b8361265d565b91507f6f6e6c79206272696467650000000000000000000000000000000000000000006000830152602082019050919050565b60006121b560118361265d565b91507f7a65726f207265676973746572206665650000000000000000000000000000006000830152602082019050919050565b60006121f560208361265d565b91507f4f776e61626c653a2063616c6c6572206973206e6f7420746865206f776e65726000830152602082019050919050565b600061223560118361265d565b91507f4e6f7420656e6f75676820746f6b656e2e0000000000000000000000000000006000830152602082019050919050565b600061227560188361265d565b91507f746f6b656e206e6f7420726567697374657265642079657400000000000000006000830152602082019050919050565b60006122b560118361265d565b91507f616c7265616479206163746976617465640000000000000000000000000000006000830152602082019050919050565b60006122f560118361265d565b91507f6e6f207377617020616c6c6f77616e63650000000000000000000000000000006000830152602082019050919050565b61233181612702565b82525050565b61234861234382612702565b612763565b82525050565b600061235a8285611f6f565b60148201915061236a8284612337565b6020820191508190509392505050565b600060208201905061238f6000830184611f60565b92915050565b60006040820190506123aa6000830185611f60565b6123b76020830184611f60565b9392505050565b60006060820190506123d36000830186611f60565b6123e06020830185611f60565b6123ed6040830184612328565b949350505050565b600060208201905061240a6000830184611f86565b92915050565b6000606082019050818103600083015261242b818789611f95565b90508181036020830152612440818587611f95565b905061244f6040830184612328565b9695505050505050565b6000602082019050818103600083015261247281611fc2565b9050919050565b6000602082019050818103600083015261249281612002565b9050919050565b600060208201905081810360008301526124b281612068565b9050919050565b600060208201905081810360008301526124d2816120a8565b9050919050565b600060208201905081810360008301526124f2816120e8565b9050919050565b6000602082019050818103600083015261251281612128565b9050919050565b6000602082019050818103600083015261253281612168565b9050919050565b60006020820190508181036000830152612552816121a8565b9050919050565b60006020820190508181036000830152612572816121e8565b9050919050565b6000602082019050818103600083015261259281612228565b9050919050565b600060208201905081810360008301526125b281612268565b9050919050565b600060208201905081810360008301526125d2816122a8565b9050919050565b600060208201905081810360008301526125f2816122e8565b9050919050565b600060208201905061260e6000830184612328565b92915050565b60006060820190506126296000830188612328565b818103602083015261263c818688611f95565b90508181036040830152612651818486611f95565b90509695505050505050565b600082825260208201905092915050565b600061267982612702565b915061268483612702565b9250827fffffffffffffffffffffffffffffffffffffffffffffffffffffffffffffffff038211156126b9576126b861276d565b5b828201905092915050565b60006126cf826126e2565b9050919050565b60008115159050919050565b600073ffffffffffffffffffffffffffffffffffffffff82169050919050565b6000819050919050565b60006127178261271e565b9050919050565b6000612729826126e2565b9050919050565b82818337600083830152505050565b600061274a82612751565b9050919050565b600061275c826127ad565b9050919050565b6000819050919050565b7f4e487b7100000000000000000000000000000000000000000000000000000000600052601160045260246000fd5b6000601f19601f8301169050919050565b60008160601b9050919050565b6127c3816126c4565b81146127ce57600080fd5b50565b6127da816126d6565b81146127e557600080fd5b50565b6127f181612702565b81146127fc57600080fd5b5056fe60806040526000600560006101000a81548160ff02191690831515021790555034801561002b57600080fd5b506118928061003b6000396000f3fe608060405234801561001057600080fd5b50600436106100b45760003560e01c806370a082311161007157806370a08231146101a357806395d89b41146101d3578063a457c2d7146101f1578063a9059cbb14610221578063b119490e14610251578063dd62ed3e1461026d576100b4565b806306fdde03146100b9578063095ea7b3146100d757806318160ddd1461010757806323b872dd14610125578063313ce567146101555780633950935114610173575b600080fd5b6100c161029d565b6040516100ce9190611448565b60405180910390f35b6100f160048036038101906100ec9190610fc2565b61032f565b6040516100fe919061142d565b60405180910390f35b61010f61034d565b60405161011c919061158a565b60405180910390f35b61013f600480360381019061013a9190610f73565b610357565b60405161014c919061142d565b60405180910390f35b61015d610458565b60405161016a91906115a5565b60405180910390f35b61018d60048036038101906101889190610fc2565b610461565b60405161019a919061142d565b60405180910390f35b6101bd60048036038101906101b89190610f0e565b61050d565b6040516101ca919061158a565b60405180910390f35b6101db610555565b6040516101e89190611448565b60405180910390f35b61020b60048036038101906102069190610fc2565b6105e7565b604051610218919061142d565b60405180910390f35b61023b60048036038101906102369190610fc2565b6106db565b604051610248919061142d565b60405180910390f35b61026b60048036038101906102669190610ffe565b6106f9565b005b61028760048036038101906102829190610f37565b6107a7565b604051610294919061158a565b60405180910390f35b6060600380546102ac9061175e565b80601f01602080910402602001604051908101604052809291908181526020018280546102d89061175e565b80156103255780601f106102fa57610100808354040283529160200191610325565b820191906000526020600020905b81548152906001019060200180831161030857829003601f168201915b5050505050905090565b600061034361033c61082e565b8484610836565b6001905092915050565b6000600254905090565b6000610364848484610a01565b6000600160008673ffffffffffffffffffffffffffffffffffffffff1673ffffffffffffffffffffffffffffffffffffffff16815260200190815260200160002060006103af61082e565b73ffffffffffffffffffffffffffffffffffffffff1673ffffffffffffffffffffffffffffffffffffffff1681526020019081526020016000205490508281101561042f576040517f08c379a0000000000000000000000000000000000000000000000000000000008152600401610426906114ca565b60405180910390fd5b61044c8561043b61082e565b85846104479190611693565b610836565b60019150509392505050565b60006012905090565b600061050361046e61082e565b84846001600061047c61082e565b73ffffffffffffffffffffffffffffffffffffffff1673ffffffffffffffffffffffffffffffffffffffff16815260200190815260200160002060008873ffffffffffffffffffffffffffffffffffffffff1673ffffffffffffffffffffffffffffffffffffffff168152602001908152602001600020546104fe919061163d565b610836565b6001905092915050565b60008060008373ffffffffffffffffffffffffffffffffffffffff1673ffffffffffffffffffffffffffffffffffffffff168152602001908152602001600020549050919050565b6060600480546105649061175e565b80601f01602080910402602001604051908101604052809291908181526020018280546105909061175e565b80156105dd5780601f106105b2576101008083540402835291602001916105dd565b820191906000526020600020905b8154815290600101906020018083116105c057829003601f168201915b5050505050905090565b600080600160006105f661082e565b73ffffffffffffffffffffffffffffffffffffffff1673ffffffffffffffffffffffffffffffffffffffff16815260200190815260200160002060008573ffffffffffffffffffffffffffffffffffffffff1673ffffffffffffffffffffffffffffffffffffffff168152602001908152602001600020549050828110156106b3576040517f08c379a00000000000000000000000000000000000000000000000000000000081526004016106aa9061154a565b60405180910390fd5b6106d06106be61082e565b8585846106cb9190611693565b610836565b600191505092915050565b60006106ef6106e861082e565b8484610a01565b6001905092915050565b60001515600560009054906101000a900460ff1615151461074f576040517f08c379a00000000000000000000000000000000000000000000000000000000081526004016107469061152a565b60405180910390fd5b8260039080519060200190610765929190610dd9565b50816004908051906020019061077c929190610dd9565b506107873382610c80565b6001600560006101000a81548160ff021916908315150217905550505050565b6000600160008473ffffffffffffffffffffffffffffffffffffffff1673ffffffffffffffffffffffffffffffffffffffff16815260200190815260200160002060008373ffffffffffffffffffffffffffffffffffffffff1673ffffffffffffffffffffffffffffffffffffffff16815260200190815260200160002054905092915050565b600033905090565b600073ffffffffffffffffffffffffffffffffffffffff168373ffffffffffffffffffffffffffffffffffffffff1614156108a6576040517f08c379a000000000000000000000000000000000000000000000000000000000815260040161089d9061150a565b60405180910390fd5b600073ffffffffffffffffffffffffffffffffffffffff168273ffffffffffffffffffffffffffffffffffffffff161415610916576040517f08c379a000000000000000000000000000000000000000000000000000000000815260040161090d9061148a565b60405180910390fd5b80600160008573ffffffffffffffffffffffffffffffffffffffff1673ffffffffffffffffffffffffffffffffffffffff16815260200190815260200160002060008473ffffffffffffffffffffffffffffffffffffffff1673ffffffffffffffffffffffffffffffffffffffff168152602001908152602001600020819055508173ffffffffffffffffffffffffffffffffffffffff168373ffffffffffffffffffffffffffffffffffffffff167f8c5be1e5ebec7d5bd14f71427d1e84f3dd0314c0f7b2291e5b200ac8c7c3b925836040516109f4919061158a565b60405180910390a3505050565b600073ffffffffffffffffffffffffffffffffffffffff168373ffffffffffffffffffffffffffffffffffffffff161415610a71576040517f08c379a0000000000000000000000000000000000000000000000000000000008152600401610a68906114ea565b60405180910390fd5b600073ffffffffffffffffffffffffffffffffffffffff168273ffffffffffffffffffffffffffffffffffffffff161415610ae1576040517f08c379a0000000000000000000000000000000000000000000000000000000008152600401610ad89061146a565b60405180910390fd5b610aec838383610dd4565b60008060008573ffffffffffffffffffffffffffffffffffffffff1673ffffffffffffffffffffffffffffffffffffffff16815260200190815260200160002054905081811015610b72576040517f08c379a0000000000000000000000000000000000000000000000000000000008152600401610b69906114aa565b60405180910390fd5b8181610b7e9190611693565b6000808673ffffffffffffffffffffffffffffffffffffffff1673ffffffffffffffffffffffffffffffffffffffff16815260200190815260200160002081905550816000808573ffffffffffffffffffffffffffffffffffffffff1673ffffffffffffffffffffffffffffffffffffffff1681526020019081526020016000206000828254610c0e919061163d565b925050819055508273ffffffffffffffffffffffffffffffffffffffff168473ffffffffffffffffffffffffffffffffffffffff167fddf252ad1be2c89b69c2b068fc378daa952ba7f163c4a11628f55a4df523b3ef84604051610c72919061158a565b60405180910390a350505050565b600073ffffffffffffffffffffffffffffffffffffffff168273ffffffffffffffffffffffffffffffffffffffff161415610cf0576040517f08c379a0000000000000000000000000000000000000000000000000000000008152600401610ce79061156a565b60405180910390fd5b610cfc60008383610dd4565b8060026000828254610d0e919061163d565b92505081905550806000808473ffffffffffffffffffffffffffffffffffffffff1673ffffffffffffffffffffffffffffffffffffffff1681526020019081526020016000206000828254610d63919061163d565b925050819055508173ffffffffffffffffffffffffffffffffffffffff16600073ffffffffffffffffffffffffffffffffffffffff167fddf252ad1be2c89b69c2b068fc378daa952ba7f163c4a11628f55a4df523b3ef83604051610dc8919061158a565b60405180910390a35050565b505050565b828054610de59061175e565b90600052602060002090601f016020900481019282610e075760008555610e4e565b82601f10610e2057805160ff1916838001178555610e4e565b82800160010185558215610e4e579182015b82811115610e4d578251825591602001919060010190610e32565b5b509050610e5b9190610e5f565b5090565b5b80821115610e78576000816000905550600101610e60565b5090565b6000610e8f610e8a846115f1565b6115c0565b905082815260208101848484011115610ea757600080fd5b610eb284828561171c565b509392505050565b600081359050610ec98161182e565b92915050565b600082601f830112610ee057600080fd5b8135610ef0848260208601610e7c565b91505092915050565b600081359050610f0881611845565b92915050565b600060208284031215610f2057600080fd5b6000610f2e84828501610eba565b91505092915050565b60008060408385031215610f4a57600080fd5b6000610f5885828601610eba565b9250506020610f6985828601610eba565b9150509250929050565b600080600060608486031215610f8857600080fd5b6000610f9686828701610eba565b9350506020610fa786828701610eba565b9250506040610fb886828701610ef9565b9150509250925092565b60008060408385031215610fd557600080fd5b6000610fe385828601610eba565b9250506020610ff485828601610ef9565b9150509250929050565b60008060006060848603121561101357600080fd5b600084013567ffffffffffffffff81111561102d57600080fd5b61103986828701610ecf565b935050602084013567ffffffffffffffff81111561105657600080fd5b61106286828701610ecf565b925050604061107386828701610ef9565b9150509250925092565b611086816116d9565b82525050565b600061109782611621565b6110a1818561162c565b93506110b181856020860161172b565b6110ba8161181d565b840191505092915050565b60006110d260238361162c565b91507f45524332303a207472616e7366657220746f20746865207a65726f206164647260008301527f65737300000000000000000000000000000000000000000000000000000000006020830152604082019050919050565b600061113860228361162c565b91507f45524332303a20617070726f766520746f20746865207a65726f20616464726560008301527f73730000000000000000000000000000000000000000000000000000000000006020830152604082019050919050565b600061119e60268361162c565b91507f45524332303a207472616e7366657220616d6f756e742065786365656473206260008301527f616c616e636500000000000000000000000000000000000000000000000000006020830152604082019050919050565b600061120460288361162c565b91507f45524332303a207472616e7366657220616d6f756e742065786365656473206160008301527f6c6c6f77616e63650000000000000000000000000000000000000000000000006020830152604082019050919050565b600061126a60258361162c565b91507f45524332303a207472616e736665722066726f6d20746865207a65726f20616460008301527f64726573730000000000000000000000000000000000000000000000000000006020830152604082019050919050565b60006112d060248361162c565b91507f45524332303a20617070726f76652066726f6d20746865207a65726f2061646460008301527f72657373000000000000000000000000000000000000000000000000000000006020830152604082019050919050565b6000611336600b8361162c565b91507f616c7265616479207365740000000000000000000000000000000000000000006000830152602082019050919050565b600061137660258361162c565b91507f45524332303a2064656372656173656420616c6c6f77616e63652062656c6f7760008301527f207a65726f0000000000000000000000000000000000000000000000000000006020830152604082019050919050565b60006113dc601f8361162c565b91507f45524332303a206d696e7420746f20746865207a65726f2061646472657373006000830152602082019050919050565b61141881611705565b82525050565b6114278161170f565b82525050565b6000602082019050611442600083018461107d565b92915050565b60006020820190508181036000830152611462818461108c565b905092915050565b60006020820190508181036000830152611483816110c5565b9050919050565b600060208201905081810360008301526114a38161112b565b9050919050565b600060208201905081810360008301526114c381611191565b9050919050565b600060208201905081810360008301526114e3816111f7565b9050919050565b600060208201905081810360008301526115038161125d565b9050919050565b60006020820190508181036000830152611523816112c3565b9050919050565b6000602082019050818103600083015261154381611329565b9050919050565b6000602082019050818103600083015261156381611369565b9050919050565b60006020820190508181036000830152611583816113cf565b9050919050565b600060208201905061159f600083018461140f565b92915050565b60006020820190506115ba600083018461141e565b92915050565b6000604051905081810181811067ffffffffffffffff821117156115e7576115e66117ee565b5b8060405250919050565b600067ffffffffffffffff82111561160c5761160b6117ee565b5b601f19601f8301169050602081019050919050565b600081519050919050565b600082825260208201905092915050565b600061164882611705565b915061165383611705565b9250827fffffffffffffffffffffffffffffffffffffffffffffffffffffffffffffffff0382111561168857611687611790565b5b828201905092915050565b600061169e82611705565b91506116a983611705565b9250828210156116bc576116bb611790565b5b828203905092915050565b60006116d2826116e5565b9050919050565b60008115159050919050565b600073ffffffffffffffffffffffffffffffffffffffff82169050919050565b6000819050919050565b600060ff82169050919050565b82818337600083830152505050565b60005b8381101561174957808201518184015260208101905061172e565b83811115611758576000848401525b50505050565b6000600282049050600182168061177657607f821691505b6020821081141561178a576117896117bf565b5b50919050565b7f4e487b7100000000000000000000000000000000000000000000000000000000600052601160045260246000fd5b7f4e487b7100000000000000000000000000000000000000000000000000000000600052602260045260246000fd5b7f4e487b7100000000000000000000000000000000000000000000000000000000600052604160045260246000fd5b6000601f19601f8301169050919050565b611837816116c7565b811461184257600080fd5b50565b61184e81611705565b811461185957600080fd5b5056fea2646970667358221220945fb38515c058388dda7ea7f64fc9ccaa9d5911505173c273be8b272a81132c64736f6c63430008000033a264697066735822122094272bef21669f653dc17d3fbb2705911965823b930990b561fb6adf5047500564736f6c63430008000033",
  "immutableReferences": {},
  "source": "// SPDX-License-Identifier: MIT\npragma solidity 0.8.0;\n\nimport \"@openzeppelin/contracts/token/ERC20/IERC20.sol\";\nimport \"@openzeppelin/contracts/token/ERC20/utils/SafeERC20.sol\";\nimport \"@openzeppelin/contracts/access/Ownable.sol\";\nimport \"./PakToken.sol\";\n\n/**\n * @dev PackLock is a smartcontract, where users are\n * locking their tokens that they are swapped to another blockchain\n */\ncontract PakLock is Ownable {\n    using SafeERC20 for IERC20;\n\n    /// @notice PakBridge (PAK) token to use in fee\n    /// for any transaction.\n    IERC20 public pak;\n\n    /// @dev the amount to use for registration\n    uint256 private registerFee;\n\n    /// @notice the address of bridge (the cosmos chain)\n    /// representer. This representer ideally should act\n    /// after voting process in the bridge.\n    address public bridge;\n\n    /// @dev Struct to track the registered tokens\n    struct RegisteredToken {\n\taddress targetToken;    // The token address deployed on\n\t                        // another blockchain\n\tbool active;            // Whether it was activated or not\n\t                        // means whether the token was\n\t                        // deployed or not.\n    }\n    /// @dev Track registered tokens\n    mapping(address => RegisteredToken) registeredTokens;\n\n    /// @dev swapping fee\n    uint256 swapFee;\n\n    /// @dev Locked amount of tokens:\n    /// token => user => balance;\n    mapping(address => mapping(address => uint256)) locks;\n\n    /// @dev Debts of user\n    mapping(address => mapping(address => uint256)) debts;\n\n    /// @notice Total amount of locked tokens\n    uint256 public lockAmount;\n    \n    event RegisterToken(address indexed token);\n    event ActivateToken(address indexed source,\n\t\t\taddress indexed target);\n    event DeployToken(address indexed source,\n\t\t      address indexed target,\n\t\t      uint256 totalSupply,\n\t\t      string name,\n\t\t      string symbol);\n    event SwapBegin(address indexed user,\n\t\t    address indexed source,\n\t\t    address indexed target,\n\t\t    uint256 amount);\n    event SwapEnd(address indexed user,\n\t\t    address indexed source,\n\t\t    address indexed target,\n\t\t    uint256 amount);\n    \n    constructor(address _pakAddress, uint256 _registerFee,\n\t\tuint256 _swapFee) {\n\trequire(_registerFee > 0, \"register zero fee.\");\n\trequire(_swapFee > 0, \"swap zero fee.\");\n\t\n\tpak = IERC20(_pakAddress);\n\tregisterFee = _registerFee;\n\tswapFee = _swapFee;\n\n\tbridge = _msgSender();\n    }\n\n    modifier onlyBridge() {\n\trequire(bridge == _msgSender(), \"only bridge\");\n\t_;\n    }\n\n    /**\n     * @dev Return amount of PAK token to use for \n     * registration of a new bridge.\n     */\n    function getRegisterFee() external view returns(uint256) {\n\treturn registerFee;\n    }\n\n    /**\n     * @notice update the register fee\n     */\n    function setRegisterFee(uint256 _registerFee)\n\texternal onlyBridge {\n\trequire(_registerFee > 0, \"zero register fee\");\n\tregisterFee = _registerFee;\n    }\n\n    /**\n     * @notice Register a token to be bridged\n     */\n    function registerToken(address _token) external {\n        RegisteredToken storage _registeredToken\n\t    = registeredTokens[_token];\n\t\n\trequire(_registeredToken.active == false,\n\t\t\"already activated\");\n\n\t// We should redeem the PakBridge token\n\t// for registeration fee\n\tuint256 allowance\n\t    = pak.allowance(msg.sender, address(this));\n\n\trequire(allowance >= registerFee, \"no allowance\");\t\n\n\tpak.transferFrom(msg.sender, bridge, registerFee);\n\t\n        _registeredToken.targetToken = address(0);\n\n\temit RegisterToken(_token);\n    }\n\n    /**\n     * @dev Activate registered token by passing the token address\n     * in another blockchain\n     */\n    function activateRegistration(address _source, address _target)\n\texternal onlyBridge {\n        RegisteredToken storage _registeredToken\n\t    = registeredTokens[_source];\n\trequire(_registeredToken.active == false,\n\t\t\"already activated\");\t\n\n\t_registeredToken.active = true;\n\t_registeredToken.targetToken = _target;\n\n\temit ActivateToken(_source, _target);\n    }\n\n    /**\n     * @notice Deploy a new contract that is mapped \n     * to the token in another blockchain\n     */\n    function deployToken(address _sourceToken,\n\t\t\t uint256 _totalSupply,\n\t\t\t string calldata _name,\n\t\t\t string calldata _symbol)\n\t\texternal onlyBridge\t\n\treturns (address _targetToken) {\n\t\n\tbytes memory bytecode = type(PakToken).creationCode;\n\tbytes32 salt = keccak256(abi.encodePacked(_sourceToken,\n\t\t\t\t\t\t _totalSupply));\n\t \n\tassembly {\n\t_targetToken := create2(0,\n\t\t\t\tadd(bytecode, 32),\n\t\t\t\tmload(bytecode), salt)\n\t}\n\trequire(registeredTokens[_targetToken].active,\n\t\t\"already deployed\");\n\n\tregisteredTokens[_targetToken]\n\t    = RegisteredToken(_sourceToken, true);\n\n\tPakToken(_targetToken)\n\t    .initialize(_name, _symbol, _totalSupply);\n\t\n\temit DeployToken(_sourceToken,\n\t\t      _targetToken,\n\t\t      _totalSupply,\n\t\t      _name,\n\t\t      _symbol);\n\n\temit RegisterToken(_targetToken);\n\temit ActivateToken(_targetToken, _sourceToken);\n\t\n    }\n\n    ///////////////////////////\n    ///\n    /// Swap\n    ///\n    /// User locks his token in one blockchain.\n    /// Then in another blockchain he gets that amount of token.\n    /// The amount that user gets in another blockchain\n    /// From total locked tokens.\n    ///\n    /// Risks: If using a token more favorable\n    /// in one of the chains, most users will transfer to that\n    /// chain their tokens. Meaning It will be hard for users\n    /// to transfer to other chain\n    ///////////////////////////\n\n    function getSwapFee() external view returns(uint256) {\n\treturn swapFee;\n    }\n\n    /**\n     * @notice update the swap fee\n     */\n    function setSwapFee(uint256 _swapFee)\n\texternal onlyBridge {\n\trequire(_swapFee > 0, \"zero register fee\");\n        swapFee = _swapFee;\n    }\n    \n    /**\n     * @notice Lock the Tokens that will be \n     * unlocked in another blockchain\n     * \n     * requirements:\n     * token to lock should be registered and active\n     */\n    function beginSwap(address _token, uint256 _amount) external {\n\trequire(registeredTokens[_token].active,\n\t\t\"token not registered yet\");\n\n\tuint256 allowance\n\t    = pak.allowance(msg.sender, address(this));\n\n\trequire(allowance >= swapFee, \"no swap allowance\");\n\n\tIERC20 token = IERC20(_token);\n\trequire(token.balanceOf(msg.sender) >= _amount,\n\t\t\"not enough balance\");\n\n\tuint256 tokenAllowance\n\t    = token.allowance(msg.sender, address(this));\n\n\trequire(tokenAllowance >= _amount,\n\t\t\"no lock allowance\");\n\n\tpak.transferFrom(msg.sender, bridge, swapFee);\n\ttoken.transferFrom(msg.sender, address(this), _amount);\n\n\tlocks[_token][msg.sender] =\n\t    locks[_token][msg.sender] + _amount;\n\n\tlockAmount = lockAmount + _amount;\n\n\temit SwapBegin(msg.sender, _token,\n\t\t       registeredTokens[_token].targetToken,\n\t\t       _amount);\n\t\n    }\n\n    /**\n     * @notice Forcefully initiate from player part to\n     * To cancel swapping.\n     * \n     * Warning! Do it only if smartcontrac was hacked.\n     *\n     * TODO!\n     */\n    function dangerBeginSwap(address _token) external view {\n\trequire(registeredTokens[_token].active, \"not active\");\n    }\n\n    function dangerEndSwap(address _token) external view onlyBridge {\n\n    }\n\n    function endSwap(address _user,\n\t\t\t address _token, uint256 _amount)\n\texternal onlyBridge {\n\trequire(_amount <= lockAmount, \"Not enough token.\");\n\trequire(registeredTokens[_token].active, \"not active\");\n\t\n\tIERC20 token = IERC20(_token);\n\n\ttoken.transferFrom(address(this), _user, _amount);\n\n\tdebts[_token][msg.sender] = debts[_token][_user]\n\t    + _amount;\n\n\temit SwapEnd(_user, _token,\n\t\t       registeredTokens[_token].targetToken,\n\t\t       _amount);\n\n    }\n}\n",
  "sourcePath": "/home/alp/smartcontracts/contracts/PakLock.sol",
  "compiler": {
    "name": "solc",
    "version": "0.8.0+commit.c7dfd78e.Emscripten.clang"
  },
  "schemaVersion": "3.4.1",
  "updatedAt": "2021-07-02T13:21:04.161Z",
  "devdoc": {
    "details": "PackLock is a smartcontract, where users are locking their tokens that they are swapped to another blockchain",
    "kind": "dev",
    "methods": {
      "activateRegistration(address,address)": {
        "details": "Activate registered token by passing the token address in another blockchain"
      },
      "getRegisterFee()": {
        "details": "Return amount of PAK token to use for  registration of a new bridge."
      },
      "owner()": {
        "details": "Returns the address of the current owner."
      },
      "renounceOwnership()": {
        "details": "Leaves the contract without owner. It will not be possible to call `onlyOwner` functions anymore. Can only be called by the current owner. NOTE: Renouncing ownership will leave the contract without an owner, thereby removing any functionality that is only available to the owner."
      },
      "transferOwnership(address)": {
        "details": "Transfers ownership of the contract to a new account (`newOwner`). Can only be called by the current owner."
      }
    },
    "stateVariables": {
      "debts": {
        "details": "Debts of user"
      },
      "locks": {
        "details": "Locked amount of tokens: token => user => balance;"
      },
      "registerFee": {
        "details": "the amount to use for registration"
      },
      "registeredTokens": {
        "details": "Track registered tokens"
      },
      "swapFee": {
        "details": "swapping fee"
      }
    },
    "version": 1
  },
  "userdoc": {
    "kind": "user",
    "methods": {
      "beginSwap(address,uint256)": {
        "notice": "Lock the Tokens that will be  unlocked in another blockchain  requirements: token to lock should be registered and active"
      },
      "bridge()": {
        "notice": "the address of bridge (the cosmos chain) representer. This representer ideally should act after voting process in the bridge."
      },
      "dangerBeginSwap(address)": {
        "notice": "Forcefully initiate from player part to To cancel swapping.  Warning! Do it only if smartcontrac was hacked. TODO!"
      },
      "deployToken(address,uint256,string,string)": {
        "notice": "Deploy a new contract that is mapped  to the token in another blockchain"
      },
      "getSwapFee()": {
        "notice": " Swap User locks his token in one blockchain. Then in another blockchain he gets that amount of token. The amount that user gets in another blockchain From total locked tokens. Risks: If using a token more favorable in one of the chains, most users will transfer to that chain their tokens. Meaning It will be hard for users to transfer to other chain"
      },
      "lockAmount()": {
        "notice": "Total amount of locked tokens"
      },
      "pak()": {
        "notice": "PakBridge (PAK) token to use in fee for any transaction."
      },
      "registerToken(address)": {
        "notice": "Register a token to be bridged"
      },
      "setRegisterFee(uint256)": {
        "notice": "update the register fee"
      },
      "setSwapFee(uint256)": {
        "notice": "update the swap fee"
      }
    },
    "version": 1
  }
}